{
  "_format": "hh-sol-artifact-1",
  "contractName": "TimeAttackGame",
  "sourceName": "contracts/TimeAttackGame.sol",
  "abi": [
    {
      "inputs": [
        {
          "internalType": "address",
          "name": "initialOwner",
          "type": "address"
        }
      ],
      "stateMutability": "nonpayable",
      "type": "constructor"
    },
    {
      "inputs": [
        {
          "internalType": "address",
          "name": "sender",
          "type": "address"
        },
        {
          "internalType": "uint256",
          "name": "tokenId",
          "type": "uint256"
        },
        {
          "internalType": "address",
          "name": "owner",
          "type": "address"
        }
      ],
      "name": "ERC721IncorrectOwner",
      "type": "error"
    },
    {
      "inputs": [
        {
          "internalType": "address",
          "name": "operator",
          "type": "address"
        },
        {
          "internalType": "uint256",
          "name": "tokenId",
          "type": "uint256"
        }
      ],
      "name": "ERC721InsufficientApproval",
      "type": "error"
    },
    {
      "inputs": [
        {
          "internalType": "address",
          "name": "approver",
          "type": "address"
        }
      ],
      "name": "ERC721InvalidApprover",
      "type": "error"
    },
    {
      "inputs": [
        {
          "internalType": "address",
          "name": "operator",
          "type": "address"
        }
      ],
      "name": "ERC721InvalidOperator",
      "type": "error"
    },
    {
      "inputs": [
        {
          "internalType": "address",
          "name": "owner",
          "type": "address"
        }
      ],
      "name": "ERC721InvalidOwner",
      "type": "error"
    },
    {
      "inputs": [
        {
          "internalType": "address",
          "name": "receiver",
          "type": "address"
        }
      ],
      "name": "ERC721InvalidReceiver",
      "type": "error"
    },
    {
      "inputs": [
        {
          "internalType": "address",
          "name": "sender",
          "type": "address"
        }
      ],
      "name": "ERC721InvalidSender",
      "type": "error"
    },
    {
      "inputs": [
        {
          "internalType": "uint256",
          "name": "tokenId",
          "type": "uint256"
        }
      ],
      "name": "ERC721NonexistentToken",
      "type": "error"
    },
    {
      "inputs": [
        {
          "internalType": "address",
          "name": "owner",
          "type": "address"
        }
      ],
      "name": "OwnableInvalidOwner",
      "type": "error"
    },
    {
      "inputs": [
        {
          "internalType": "address",
          "name": "account",
          "type": "address"
        }
      ],
      "name": "OwnableUnauthorizedAccount",
      "type": "error"
    },
    {
      "anonymous": false,
      "inputs": [
        {
          "indexed": true,
          "internalType": "address",
          "name": "owner",
          "type": "address"
        },
        {
          "indexed": true,
          "internalType": "address",
          "name": "approved",
          "type": "address"
        },
        {
          "indexed": true,
          "internalType": "uint256",
          "name": "tokenId",
          "type": "uint256"
        }
      ],
      "name": "Approval",
      "type": "event"
    },
    {
      "anonymous": false,
      "inputs": [
        {
          "indexed": true,
          "internalType": "address",
          "name": "owner",
          "type": "address"
        },
        {
          "indexed": true,
          "internalType": "address",
          "name": "operator",
          "type": "address"
        },
        {
          "indexed": false,
          "internalType": "bool",
          "name": "approved",
          "type": "bool"
        }
      ],
      "name": "ApprovalForAll",
      "type": "event"
    },
    {
      "anonymous": false,
      "inputs": [
        {
          "indexed": true,
          "internalType": "address",
          "name": "player",
          "type": "address"
        },
        {
          "indexed": false,
          "internalType": "uint256",
          "name": "rank",
          "type": "uint256"
        }
      ],
      "name": "LeaderboardUpdated",
      "type": "event"
    },
    {
      "anonymous": false,
      "inputs": [
        {
          "indexed": true,
          "internalType": "address",
          "name": "previousOwner",
          "type": "address"
        },
        {
          "indexed": true,
          "internalType": "address",
          "name": "newOwner",
          "type": "address"
        }
      ],
      "name": "OwnershipTransferred",
      "type": "event"
    },
    {
      "anonymous": false,
      "inputs": [
        {
          "indexed": true,
          "internalType": "address",
          "name": "player",
          "type": "address"
        },
        {
          "indexed": true,
          "internalType": "uint256",
          "name": "tokenId",
          "type": "uint256"
        },
        {
          "indexed": false,
          "internalType": "uint256",
          "name": "timestamp",
          "type": "uint256"
        }
      ],
      "name": "PerfectBadgeMinted",
      "type": "event"
    },
    {
      "anonymous": false,
      "inputs": [
        {
          "indexed": true,
          "internalType": "address",
          "name": "player",
          "type": "address"
        },
        {
          "indexed": false,
          "internalType": "uint256",
          "name": "score",
          "type": "uint256"
        },
        {
          "indexed": false,
          "internalType": "uint256",
          "name": "time",
          "type": "uint256"
        },
        {
          "indexed": false,
          "internalType": "bool",
          "name": "isPerfect",
          "type": "bool"
        },
        {
          "indexed": false,
          "internalType": "uint256",
          "name": "timestamp",
          "type": "uint256"
        }
      ],
      "name": "ScoreSubmitted",
      "type": "event"
    },
    {
      "anonymous": false,
      "inputs": [
        {
          "indexed": true,
          "internalType": "address",
          "name": "from",
          "type": "address"
        },
        {
          "indexed": true,
          "internalType": "address",
          "name": "to",
          "type": "address"
        },
        {
          "indexed": true,
          "internalType": "uint256",
          "name": "tokenId",
          "type": "uint256"
        }
      ],
      "name": "Transfer",
      "type": "event"
    },
    {
      "inputs": [],
      "name": "MAX_LEADERBOARD_SIZE",
      "outputs": [
        {
          "internalType": "uint256",
          "name": "",
          "type": "uint256"
        }
      ],
      "stateMutability": "view",
      "type": "function"
    },
    {
      "inputs": [],
      "name": "PAYMENT_RECIPIENT",
      "outputs": [
        {
          "internalType": "address",
          "name": "",
          "type": "address"
        }
      ],
      "stateMutability": "view",
      "type": "function"
    },
    {
      "inputs": [],
      "name": "PERFECT_BADGE_FEE",
      "outputs": [
        {
          "internalType": "uint256",
          "name": "",
          "type": "uint256"
        }
      ],
      "stateMutability": "view",
      "type": "function"
    },
    {
      "inputs": [
        {
          "internalType": "address",
          "name": "to",
          "type": "address"
        },
        {
          "internalType": "uint256",
          "name": "tokenId",
          "type": "uint256"
        }
      ],
      "name": "approve",
      "outputs": [],
      "stateMutability": "nonpayable",
      "type": "function"
    },
    {
      "inputs": [
        {
          "internalType": "uint256",
          "name": "",
          "type": "uint256"
        }
      ],
      "name": "badgeOwner",
      "outputs": [
        {
          "internalType": "address",
          "name": "",
          "type": "address"
        }
      ],
      "stateMutability": "view",
      "type": "function"
    },
    {
      "inputs": [
        {
          "internalType": "address",
          "name": "owner",
          "type": "address"
        }
      ],
      "name": "balanceOf",
      "outputs": [
        {
          "internalType": "uint256",
          "name": "",
          "type": "uint256"
        }
      ],
      "stateMutability": "view",
      "type": "function"
    },
    {
      "inputs": [
        {
          "internalType": "uint256",
          "name": "tokenId",
          "type": "uint256"
        }
      ],
      "name": "getApproved",
      "outputs": [
        {
          "internalType": "address",
          "name": "",
          "type": "address"
        }
      ],
      "stateMutability": "view",
      "type": "function"
    },
    {
      "inputs": [],
      "name": "getGameStats",
      "outputs": [
        {
          "internalType": "uint256",
          "name": "_totalGames",
          "type": "uint256"
        },
        {
          "internalType": "uint256",
          "name": "_totalPerfectBadges",
          "type": "uint256"
        },
        {
          "internalType": "uint256",
          "name": "_leaderboardSize",
          "type": "uint256"
        }
      ],
      "stateMutability": "view",
      "type": "function"
    },
    {
      "inputs": [
        {
          "internalType": "address",
          "name": "player",
          "type": "address"
        }
      ],
      "name": "getPlayerRank",
      "outputs": [
        {
          "internalType": "uint256",
          "name": "",
          "type": "uint256"
        }
      ],
      "stateMutability": "view",
      "type": "function"
    },
    {
      "inputs": [
        {
          "internalType": "address",
          "name": "player",
          "type": "address"
        }
      ],
      "name": "getPlayerScores",
      "outputs": [
        {
          "components": [
            {
              "internalType": "address",
              "name": "player",
              "type": "address"
            },
            {
              "internalType": "uint256",
              "name": "score",
              "type": "uint256"
            },
            {
              "internalType": "uint256",
              "name": "time",
              "type": "uint256"
            },
            {
              "internalType": "uint256",
              "name": "timestamp",
              "type": "uint256"
            },
            {
              "internalType": "bool",
              "name": "isPerfect",
              "type": "bool"
            }
          ],
          "internalType": "struct TimeAttackGame.ScoreEntry[]",
          "name": "",
          "type": "tuple[]"
        }
      ],
      "stateMutability": "view",
      "type": "function"
    },
    {
      "inputs": [
        {
          "internalType": "uint256",
          "name": "count",
          "type": "uint256"
        }
      ],
      "name": "getTopScores",
      "outputs": [
        {
          "components": [
            {
              "internalType": "address",
              "name": "player",
              "type": "address"
            },
            {
              "internalType": "uint256",
              "name": "score",
              "type": "uint256"
            },
            {
              "internalType": "uint256",
              "name": "time",
              "type": "uint256"
            },
            {
              "internalType": "uint256",
              "name": "timestamp",
              "type": "uint256"
            },
            {
              "internalType": "bool",
              "name": "isPerfect",
              "type": "bool"
            }
          ],
          "internalType": "struct TimeAttackGame.ScoreEntry[]",
          "name": "",
          "type": "tuple[]"
        }
      ],
      "stateMutability": "view",
      "type": "function"
    },
    {
      "inputs": [
        {
          "internalType": "uint256",
          "name": "",
          "type": "uint256"
        }
      ],
      "name": "globalLeaderboard",
      "outputs": [
        {
          "internalType": "address",
          "name": "player",
          "type": "address"
        },
        {
          "internalType": "uint256",
          "name": "score",
          "type": "uint256"
        },
        {
          "internalType": "uint256",
          "name": "time",
          "type": "uint256"
        },
        {
          "internalType": "uint256",
          "name": "timestamp",
          "type": "uint256"
        },
        {
          "internalType": "bool",
          "name": "isPerfect",
          "type": "bool"
        }
      ],
      "stateMutability": "view",
      "type": "function"
    },
    {
      "inputs": [
        {
          "internalType": "address",
          "name": "",
          "type": "address"
        }
      ],
      "name": "hasPerfectBadge",
      "outputs": [
        {
          "internalType": "bool",
          "name": "",
          "type": "bool"
        }
      ],
      "stateMutability": "view",
      "type": "function"
    },
    {
      "inputs": [
        {
          "internalType": "address",
          "name": "owner",
          "type": "address"
        },
        {
          "internalType": "address",
          "name": "operator",
          "type": "address"
        }
      ],
      "name": "isApprovedForAll",
      "outputs": [
        {
          "internalType": "bool",
          "name": "",
          "type": "bool"
        }
      ],
      "stateMutability": "view",
      "type": "function"
    },
    {
      "inputs": [],
      "name": "name",
      "outputs": [
        {
          "internalType": "string",
          "name": "",
          "type": "string"
        }
      ],
      "stateMutability": "view",
      "type": "function"
    },
    {
      "inputs": [],
      "name": "owner",
      "outputs": [
        {
          "internalType": "address",
          "name": "",
          "type": "address"
        }
      ],
      "stateMutability": "view",
      "type": "function"
    },
    {
      "inputs": [
        {
          "internalType": "uint256",
          "name": "tokenId",
          "type": "uint256"
        }
      ],
      "name": "ownerOf",
      "outputs": [
        {
          "internalType": "address",
          "name": "",
          "type": "address"
        }
      ],
      "stateMutability": "view",
      "type": "function"
    },
    {
      "inputs": [
        {
          "internalType": "address",
          "name": "",
          "type": "address"
        }
      ],
      "name": "playerBestScore",
      "outputs": [
        {
          "internalType": "uint256",
          "name": "",
          "type": "uint256"
        }
      ],
      "stateMutability": "view",
      "type": "function"
    },
    {
      "inputs": [
        {
          "internalType": "address",
          "name": "",
          "type": "address"
        },
        {
          "internalType": "uint256",
          "name": "",
          "type": "uint256"
        }
      ],
      "name": "playerScores",
      "outputs": [
        {
          "internalType": "address",
          "name": "player",
          "type": "address"
        },
        {
          "internalType": "uint256",
          "name": "score",
          "type": "uint256"
        },
        {
          "internalType": "uint256",
          "name": "time",
          "type": "uint256"
        },
        {
          "internalType": "uint256",
          "name": "timestamp",
          "type": "uint256"
        },
        {
          "internalType": "bool",
          "name": "isPerfect",
          "type": "bool"
        }
      ],
      "stateMutability": "view",
      "type": "function"
    },
    {
      "inputs": [],
      "name": "renounceOwnership",
      "outputs": [],
      "stateMutability": "nonpayable",
      "type": "function"
    },
    {
      "inputs": [
        {
          "internalType": "address",
          "name": "from",
          "type": "address"
        },
        {
          "internalType": "address",
          "name": "to",
          "type": "address"
        },
        {
          "internalType": "uint256",
          "name": "tokenId",
          "type": "uint256"
        }
      ],
      "name": "safeTransferFrom",
      "outputs": [],
      "stateMutability": "nonpayable",
      "type": "function"
    },
    {
      "inputs": [
        {
          "internalType": "address",
          "name": "from",
          "type": "address"
        },
        {
          "internalType": "address",
          "name": "to",
          "type": "address"
        },
        {
          "internalType": "uint256",
          "name": "tokenId",
          "type": "uint256"
        },
        {
          "internalType": "bytes",
          "name": "data",
          "type": "bytes"
        }
      ],
      "name": "safeTransferFrom",
      "outputs": [],
      "stateMutability": "nonpayable",
      "type": "function"
    },
    {
      "inputs": [
        {
          "internalType": "address",
          "name": "operator",
          "type": "address"
        },
        {
          "internalType": "bool",
          "name": "approved",
          "type": "bool"
        }
      ],
      "name": "setApprovalForAll",
      "outputs": [],
      "stateMutability": "nonpayable",
      "type": "function"
    },
    {
      "inputs": [
        {
          "internalType": "uint256",
          "name": "_score",
          "type": "uint256"
        },
        {
          "internalType": "uint256",
          "name": "_time",
          "type": "uint256"
        }
      ],
      "name": "submitScore",
      "outputs": [],
      "stateMutability": "payable",
      "type": "function"
    },
    {
      "inputs": [
        {
          "internalType": "bytes4",
          "name": "interfaceId",
          "type": "bytes4"
        }
      ],
      "name": "supportsInterface",
      "outputs": [
        {
          "internalType": "bool",
          "name": "",
          "type": "bool"
        }
      ],
      "stateMutability": "view",
      "type": "function"
    },
    {
      "inputs": [],
      "name": "symbol",
      "outputs": [
        {
          "internalType": "string",
          "name": "",
          "type": "string"
        }
      ],
      "stateMutability": "view",
      "type": "function"
    },
    {
      "inputs": [
        {
          "internalType": "uint256",
          "name": "",
          "type": "uint256"
        }
      ],
      "name": "tokenURI",
      "outputs": [
        {
          "internalType": "string",
          "name": "",
          "type": "string"
        }
      ],
      "stateMutability": "pure",
      "type": "function"
    },
    {
      "inputs": [],
      "name": "totalGames",
      "outputs": [
        {
          "internalType": "uint256",
          "name": "",
          "type": "uint256"
        }
      ],
      "stateMutability": "view",
      "type": "function"
    },
    {
      "inputs": [],
      "name": "totalPerfectBadges",
      "outputs": [
        {
          "internalType": "uint256",
          "name": "",
          "type": "uint256"
        }
      ],
      "stateMutability": "view",
      "type": "function"
    },
    {
      "inputs": [
        {
          "internalType": "address",
          "name": "from",
          "type": "address"
        },
        {
          "internalType": "address",
          "name": "to",
          "type": "address"
        },
        {
          "internalType": "uint256",
          "name": "tokenId",
          "type": "uint256"
        }
      ],
      "name": "transferFrom",
      "outputs": [],
      "stateMutability": "nonpayable",
      "type": "function"
    },
    {
      "inputs": [
        {
          "internalType": "address",
          "name": "newOwner",
          "type": "address"
        }
      ],
      "name": "transferOwnership",
      "outputs": [],
      "stateMutability": "nonpayable",
      "type": "function"
    }
  ],
  "bytecode": "0x60806040523480156200001157600080fd5b50604051620024aa380380620024aa833981016040819052620000349162000147565b806040518060400160405280601981526020017f54696d652041747461636b20506572666563742042616467650000000000000081525060405180604001604052806007815260200166141154919150d560ca1b81525081600090816200009c919062000220565b506001620000ab828262000220565b5050506001600160a01b038116620000dd57604051631e4fbdf760e01b81526000600482015260240160405180910390fd5b620000e881620000f5565b50506001600955620002ec565b600680546001600160a01b038381166001600160a01b0319831681179093556040519116919082907f8be0079c531659141344cd1fd0a4f28419497f9722a3daafe3b4186f6b6457e090600090a35050565b6000602082840312156200015a57600080fd5b81516001600160a01b03811681146200017257600080fd5b9392505050565b634e487b7160e01b600052604160045260246000fd5b600181811c90821680620001a457607f821691505b602082108103620001c557634e487b7160e01b600052602260045260246000fd5b50919050565b601f8211156200021b576000816000526020600020601f850160051c81016020861015620001f65750805b601f850160051c820191505b81811015620002175782815560010162000202565b5050505b505050565b81516001600160401b038111156200023c576200023c62000179565b62000254816200024d84546200018f565b84620001cb565b602080601f8311600181146200028c5760008415620002735750858301515b600019600386901b1c1916600185901b17855562000217565b600085815260208120601f198616915b82811015620002bd578886015182559484019460019091019084016200029c565b5085821015620002dc5787850151600019600388901b60f8161c191681555b5050505050600190811b01905550565b6121ae80620002fc6000396000f3fe6080604052600436106101d85760003560e01c806373055bc311610102578063a811748411610095578063d4fd16b511610064578063d4fd16b51461074f578063db8771421461077f578063e985e9c514610794578063f2fde38b146107b457600080fd5b8063a81174841461052d578063b162f2571461055a578063b88d4fde1461057a578063c87b56dd1461059a57600080fd5b8063968ffe34116100d1578063968ffe3414610498578063a22cb465146104c5578063a54069f4146104e5578063a697cb0e1461050d57600080fd5b806373055bc3146104325780638358ba08146104525780638da5cb5b1461046557806395d89b411461048357600080fd5b80632c4e591b1161017a57806345b2a70d1161014957806345b2a70d146103c35780636352211e146103dd57806370a08231146103fd578063715018a61461041d57600080fd5b80632c4e591b14610303578063330ab49a146103195780633aeef20d1461036d57806342842e0e146103a357600080fd5b8063095ea7b3116101b6578063095ea7b31461026c5780631aff30dd1461028e57806323b872dd146102bf5780632472ce59146102df57600080fd5b806301ffc9a7146101dd57806306fdde0314610212578063081812fc14610234575b600080fd5b3480156101e957600080fd5b506101fd6101f8366004611d51565b6107d4565b60405190151581526020015b60405180910390f35b34801561021e57600080fd5b50610227610826565b6040516102099190611db4565b34801561024057600080fd5b5061025461024f366004611dc7565b6108b8565b6040516001600160a01b039091168152602001610209565b34801561027857600080fd5b5061028c610287366004611dfc565b6108e1565b005b34801561029a57600080fd5b50600754600854600e5460408051938452602084019290925290820152606001610209565b3480156102cb57600080fd5b5061028c6102da366004611e26565b6108f0565b3480156102eb57600080fd5b506102f560085481565b604051908152602001610209565b34801561030f57600080fd5b506102f560075481565b34801561032557600080fd5b50610339610334366004611dc7565b610980565b604080516001600160a01b03909616865260208601949094529284019190915260608301521515608082015260a001610209565b34801561037957600080fd5b50610254610388366004611dc7565b600d602052600090815260409020546001600160a01b031681565b3480156103af57600080fd5b5061028c6103be366004611e26565b6109ce565b3480156103cf57600080fd5b506102f5651b48eb57e00081565b3480156103e957600080fd5b506102546103f8366004611dc7565b6109ee565b34801561040957600080fd5b506102f5610418366004611e62565b6109f9565b34801561042957600080fd5b5061028c610a41565b34801561043e57600080fd5b5061033961044d366004611dfc565b610a55565b61028c610460366004611e7d565b610ab0565b34801561047157600080fd5b506006546001600160a01b0316610254565b34801561048f57600080fd5b50610227610dbc565b3480156104a457600080fd5b506104b86104b3366004611dc7565b610dcb565b6040516102099190611e9f565b3480156104d157600080fd5b5061028c6104e0366004611f18565b610f18565b3480156104f157600080fd5b5061025473cf87bf72d82a60a6b700130ca05188bdd89da50181565b34801561051957600080fd5b506102f5610528366004611e62565b610f23565b34801561053957600080fd5b506102f5610548366004611e62565b600b6020526000908152604090205481565b34801561056657600080fd5b506104b8610575366004611e62565b610fd9565b34801561058657600080fd5b5061028c610595366004611f6a565b611088565b3480156105a657600080fd5b506102276105b5366004611dc7565b50604080517f646174613a6170706c69636174696f6e2f6a736f6e3b6261736536342c00000060208201527f65794a755957316c496a6f67496c426c636d5a6c5933516756476c745a534242603d8201527f6448526859327367516d466b5a3255694c4341695a47567a59334a7063485270605d8201527f623234694f69416951574e6f615756325a575167634756795a6d566a64434178607d8201527f4d4334774d43427a5a574e76626d527a49476c75494652706257556751585230609d8201527f59574e724953497349434a706257466e5a53493649434a7063475a7a4f69387660bd8201527f555731515a584a6d5a574e30516d466b5a3255694c43416959585230636d6c6960dd8201527f6458526c6379493649467437496e527959576c3058335235634755694f69416960fd8201527f51574e6f615756325a57316c626e51694c434169646d4673645755694f69416961011d8201527f554756795a6d566a644341784d4334774d484d6966563139000000000000000061013d820152815161013581830301815261015590910190915290565b34801561075b57600080fd5b506101fd61076a366004611e62565b600c6020526000908152604090205460ff1681565b34801561078b57600080fd5b506102f5606481565b3480156107a057600080fd5b506101fd6107af366004612046565b6110a0565b3480156107c057600080fd5b5061028c6107cf366004611e62565b6110ce565b60006001600160e01b031982166380ac58cd60e01b148061080557506001600160e01b03198216635b5e139f60e01b145b8061082057506301ffc9a760e01b6001600160e01b03198316145b92915050565b60606000805461083590612079565b80601f016020809104026020016040519081016040528092919081815260200182805461086190612079565b80156108ae5780601f10610883576101008083540402835291602001916108ae565b820191906000526020600020905b81548152906001019060200180831161089157829003601f168201915b5050505050905090565b60006108c38261110c565b506000828152600460205260409020546001600160a01b0316610820565b6108ec828233611145565b5050565b6001600160a01b03821661091f57604051633250574960e11b8152600060048201526024015b60405180910390fd5b600061092c838333611152565b9050836001600160a01b0316816001600160a01b03161461097a576040516364283d7b60e01b81526001600160a01b0380861660048301526024820184905282166044820152606401610916565b50505050565b600e818154811061099057600080fd5b6000918252602090912060059091020180546001820154600283015460038401546004909401546001600160a01b0390931694509092909160ff1685565b6109e983838360405180602001604052806000815250611088565b505050565b60006108208261110c565b60006001600160a01b038216610a25576040516322718ad960e21b815260006004820152602401610916565b506001600160a01b031660009081526003602052604090205490565b610a496111eb565b610a536000611218565b565b600a6020528160005260406000208181548110610a7157600080fd5b6000918252602090912060059091020180546001820154600283015460038401546004909401546001600160a01b039093169550909350919060ff1685565b6064821115610af15760405162461bcd60e51b815260206004820152600d60248201526c496e76616c69642073636f726560981b6044820152606401610916565b60008111610b305760405162461bcd60e51b815260206004820152600c60248201526b496e76616c69642074696d6560a01b6044820152606401610916565b60648214808015610b515750336000908152600c602052604090205460ff16155b15610c6057651b48eb57e000341015610bac5760405162461bcd60e51b815260206004820152601f60248201527f50657266656374204261646765206d696e7420666565207265717569726564006044820152606401610916565b3415610c605760405160009073cf87bf72d82a60a6b700130ca05188bdd89da5019034908381818185875af1925050503d8060008114610c08576040519150601f19603f3d011682016040523d82523d6000602084013e610c0d565b606091505b5050905080610c5e5760405162461bcd60e51b815260206004820152601760248201527f5061796d656e74207472616e73666572206661696c65640000000000000000006044820152606401610916565b505b6040805160a0810182523380825260208083018781528385018781524260608601908152871515608087019081526000958652600a8552968520805460018082018355918752948620875160059096020180546001600160a01b0319166001600160a01b0390961695909517855592519284019290925551600283015551600382015592516004909301805460ff191693151593909317909255600780549192610d09836120c9565b9091555050336000908152600b6020526040902054841115610d3857336000908152600b602052604090208490555b610d418161126a565b818015610d5e5750336000908152600c602052604090205460ff16155b15610d6c57610d6c3361153a565b604080518581526020810185905283151581830152426060820152905133917fe33289ac93951f70a5fcdf69fc801aaa1307a0c2bac5edd1275fffcf6e615dd9919081900360800190a250505050565b60606001805461083590612079565b600e546060906000908311610de05782610de4565b600e545b905060008167ffffffffffffffff811115610e0157610e01611f54565b604051908082528060200260200182016040528015610e6f57816020015b610e5c6040518060a0016040528060006001600160a01b031681526020016000815260200160008152602001600081526020016000151581525090565b815260200190600190039081610e1f5790505b50905060005b82811015610f1057600e8181548110610e9057610e906120e2565b60009182526020918290206040805160a081018252600590930290910180546001600160a01b031683526001810154938301939093526002830154908201526003820154606082015260049091015460ff16151560808201528251839083908110610efd57610efd6120e2565b6020908102919091010152600101610e75565b509392505050565b6108ec3383836115f8565b6000805b600e54811015610fd057826001600160a01b0316600e8281548110610f4e57610f4e6120e2565b60009182526020909120600590910201546001600160a01b0316148015610fb157506001600160a01b0383166000908152600b6020526040902054600e805483908110610f9d57610f9d6120e2565b906000526020600020906005020160010154145b15610fc857610fc18160016120f8565b9392505050565b600101610f27565b50600092915050565b6001600160a01b0381166000908152600a60209081526040808320805482518185028101850190935280835260609492939192909184015b8282101561107d5760008481526020908190206040805160a0810182526005860290920180546001600160a01b0316835260018082015484860152600282015492840192909252600381015460608401526004015460ff16151560808301529083529092019101611011565b505050509050919050565b6110938484846108f0565b61097a3385858585611697565b6001600160a01b03918216600090815260056020908152604080832093909416825291909152205460ff1690565b6110d66111eb565b6001600160a01b03811661110057604051631e4fbdf760e01b815260006004820152602401610916565b61110981611218565b50565b6000818152600260205260408120546001600160a01b03168061082057604051637e27328960e01b815260048101849052602401610916565b6109e983838360016117c2565b6000828152600260205260408120546001600160a01b031680156111d75760405162461bcd60e51b815260206004820152603660248201527f50657266656374204261646765732061726520736f756c626f756e6420616e646044820152750818d85b9b9bdd081899481d1c985b9cd9995c9c995960521b6064820152608401610916565b6111e28585856118c8565b95945050505050565b6006546001600160a01b03163314610a535760405163118cdaa760e01b8152336004820152602401610916565b600680546001600160a01b038381166001600160a01b0319831681179093556040519116919082907f8be0079c531659141344cd1fd0a4f28419497f9722a3daafe3b4186f6b6457e090600090a35050565b600e54606411156113cf57600e805460018101825560009190915281517fbb7b4a454dc3493923482f07822329ed19e8244eff582cc204f8554c3620c3fd600590920291820180546001600160a01b0319166001600160a01b0390921691909117905560208201517fbb7b4a454dc3493923482f07822329ed19e8244eff582cc204f8554c3620c3fe82015560408201517fbb7b4a454dc3493923482f07822329ed19e8244eff582cc204f8554c3620c3ff82015560608201517fbb7b4a454dc3493923482f07822329ed19e8244eff582cc204f8554c3620c40082015560808201517fbb7b4a454dc3493923482f07822329ed19e8244eff582cc204f8554c3620c401909101805460ff19169115159190911790556113886119c1565b8051600e546040519081526001600160a01b03909116907f24e225604268d6416871b32db1be8e49f497caf8360393b31d71a34a4ce266939060200160405180910390a250565b600e6113dd6001606461210b565b815481106113ed576113ed6120e2565b906000526020600020906005020160010154816020015111156111095780600e6114196001606461210b565b81548110611429576114296120e2565b600091825260209182902083516005929092020180546001600160a01b0319166001600160a01b0390921691909117815590820151600182015560408201516002820155606082015160038201556080909101516004909101805460ff19169115159190911790556114996119c1565b60005b600e548110156108ec5781600001516001600160a01b0316600e82815481106114c7576114c76120e2565b60009182526020909120600590910201546001600160a01b0316036115325781516001600160a01b03167f24e225604268d6416871b32db1be8e49f497caf8360393b31d71a34a4ce2669361151d8360016120f8565b60405190815260200160405180910390a25050565b60010161149c565b60098054908190600061154c836120c9565b919050555061155b8282611bda565b6001600160a01b0382166000818152600c60209081526040808320805460ff19166001179055848352600d909152812080546001600160a01b03191690921790915560088054916115ab836120c9565b919050555080826001600160a01b03167f4947d052c856de0e4167cbb18cb8676861dd094877411031257dd7ce6333638e426040516115ec91815260200190565b60405180910390a35050565b6001600160a01b03821661162a57604051630b61174360e31b81526001600160a01b0383166004820152602401610916565b6001600160a01b03838116600081815260056020908152604080832094871680845294825291829020805460ff191686151590811790915591519182527f17307eab39ab6107e8899845ad3d59bd9653f200f220920489ca2b5937696c31910160405180910390a3505050565b6001600160a01b0383163b156117bb57604051630a85bd0160e11b81526001600160a01b0384169063150b7a02906116d990889088908790879060040161211e565b6020604051808303816000875af1925050508015611714575060408051601f3d908101601f191682019092526117119181019061215b565b60015b61177d573d808015611742576040519150601f19603f3d011682016040523d82523d6000602084013e611747565b606091505b50805160000361177557604051633250574960e11b81526001600160a01b0385166004820152602401610916565b805160208201fd5b6001600160e01b03198116630a85bd0160e11b146117b957604051633250574960e11b81526001600160a01b0385166004820152602401610916565b505b5050505050565b80806117d657506001600160a01b03821615155b156118985760006117e68461110c565b90506001600160a01b038316158015906118125750826001600160a01b0316816001600160a01b031614155b8015611825575061182381846110a0565b155b1561184e5760405163a9fbf51f60e01b81526001600160a01b0384166004820152602401610916565b81156118965783856001600160a01b0316826001600160a01b03167f8c5be1e5ebec7d5bd14f71427d1e84f3dd0314c0f7b2291e5b200ac8c7c3b92560405160405180910390a45b505b5050600090815260046020526040902080546001600160a01b0319166001600160a01b0392909216919091179055565b6000828152600260205260408120546001600160a01b03908116908316156118f5576118f5818486611bf4565b6001600160a01b03811615611933576119126000856000806117c2565b6001600160a01b038116600090815260036020526040902080546000190190555b6001600160a01b03851615611962576001600160a01b0385166000908152600360205260409020805460010190555b60008481526002602052604080822080546001600160a01b0319166001600160a01b0389811691821790925591518793918516917fddf252ad1be2c89b69c2b068fc378daa952ba7f163c4a11628f55a4df523b3ef91a4949350505050565b600e5460005b818110156108ec5760006119dc8260016120f8565b90505b82811015611bd157600e81815481106119fa576119fa6120e2565b906000526020600020906005020160010154600e8381548110611a1f57611a1f6120e2565b9060005260206000209060050201600101541015611bc9576000600e8381548110611a4c57611a4c6120e2565b60009182526020918290206040805160a081018252600590930290910180546001600160a01b031683526001810154938301939093526002830154908201526003820154606082015260049091015460ff1615156080820152600e80549192509083908110611abd57611abd6120e2565b9060005260206000209060050201600e8481548110611ade57611ade6120e2565b60009182526020909120825460059092020180546001600160a01b0319166001600160a01b039092169190911781556001808301549082015560028083015490820155600380830154908201556004918201549101805460ff909216151560ff19909216919091179055600e805482919084908110611b5f57611b5f6120e2565b600091825260209182902083516005929092020180546001600160a01b0319166001600160a01b0390921691909117815590820151600182015560408201516002820155606082015160038201556080909101516004909101805460ff1916911515919091179055505b6001016119df565b506001016119c7565b6108ec828260405180602001604052806000815250611c58565b611bff838383611c70565b6109e9576001600160a01b038316611c2d57604051637e27328960e01b815260048101829052602401610916565b60405163177e802f60e01b81526001600160a01b038316600482015260248101829052604401610916565b611c628383611cd6565b6109e9336000858585611697565b60006001600160a01b03831615801590611cce5750826001600160a01b0316846001600160a01b03161480611caa5750611caa84846110a0565b80611cce57506000828152600460205260409020546001600160a01b038481169116145b949350505050565b6001600160a01b038216611d0057604051633250574960e11b815260006004820152602401610916565b6000611d0e83836000611152565b90506001600160a01b038116156109e9576040516339e3563760e11b815260006004820152602401610916565b6001600160e01b03198116811461110957600080fd5b600060208284031215611d6357600080fd5b8135610fc181611d3b565b6000815180845260005b81811015611d9457602081850181015186830182015201611d78565b506000602082860101526020601f19601f83011685010191505092915050565b602081526000610fc16020830184611d6e565b600060208284031215611dd957600080fd5b5035919050565b80356001600160a01b0381168114611df757600080fd5b919050565b60008060408385031215611e0f57600080fd5b611e1883611de0565b946020939093013593505050565b600080600060608486031215611e3b57600080fd5b611e4484611de0565b9250611e5260208501611de0565b9150604084013590509250925092565b600060208284031215611e7457600080fd5b610fc182611de0565b60008060408385031215611e9057600080fd5b50508035926020909101359150565b602080825282518282018190526000919060409081850190868401855b82811015611f0b57815180516001600160a01b03168552868101518786015285810151868601526060808201519086015260809081015115159085015260a09093019290850190600101611ebc565b5091979650505050505050565b60008060408385031215611f2b57600080fd5b611f3483611de0565b915060208301358015158114611f4957600080fd5b809150509250929050565b634e487b7160e01b600052604160045260246000fd5b60008060008060808587031215611f8057600080fd5b611f8985611de0565b9350611f9760208601611de0565b925060408501359150606085013567ffffffffffffffff80821115611fbb57600080fd5b818701915087601f830112611fcf57600080fd5b813581811115611fe157611fe1611f54565b604051601f8201601f19908116603f0116810190838211818310171561200957612009611f54565b816040528281528a602084870101111561202257600080fd5b82602086016020830137600060208483010152809550505050505092959194509250565b6000806040838503121561205957600080fd5b61206283611de0565b915061207060208401611de0565b90509250929050565b600181811c9082168061208d57607f821691505b6020821081036120ad57634e487b7160e01b600052602260045260246000fd5b50919050565b634e487b7160e01b600052601160045260246000fd5b6000600182016120db576120db6120b3565b5060010190565b634e487b7160e01b600052603260045260246000fd5b80820180821115610820576108206120b3565b81810381811115610820576108206120b3565b6001600160a01b038581168252841660208201526040810183905260806060820181905260009061215190830184611d6e565b9695505050505050565b60006020828403121561216d57600080fd5b8151610fc181611d3b56fea2646970667358221220b77ef956c8f41baac9a06f0a1beab204fac977dfd2ae7abd1228afcb5d40e6e264736f6c63430008180033",
  "linkReferences": {},
  "deployedLinkReferences": {}
}