{
  "_format": "hh-sol-artifact-1",
  "contractName": "TimeAttackGame",
  "sourceName": "contracts/TimeAttackGame.sol",
  "abi": [
    {
      "inputs": [],
      "stateMutability": "nonpayable",
      "type": "constructor"
    },
    {
      "inputs": [
        {
          "internalType": "address",
          "name": "sender",
          "type": "address"
        },
        {
          "internalType": "uint256",
          "name": "tokenId",
          "type": "uint256"
        },
        {
          "internalType": "address",
          "name": "owner",
          "type": "address"
        }
      ],
      "name": "ERC721IncorrectOwner",
      "type": "error"
    },
    {
      "inputs": [
        {
          "internalType": "address",
          "name": "operator",
          "type": "address"
        },
        {
          "internalType": "uint256",
          "name": "tokenId",
          "type": "uint256"
        }
      ],
      "name": "ERC721InsufficientApproval",
      "type": "error"
    },
    {
      "inputs": [
        {
          "internalType": "address",
          "name": "approver",
          "type": "address"
        }
      ],
      "name": "ERC721InvalidApprover",
      "type": "error"
    },
    {
      "inputs": [
        {
          "internalType": "address",
          "name": "operator",
          "type": "address"
        }
      ],
      "name": "ERC721InvalidOperator",
      "type": "error"
    },
    {
      "inputs": [
        {
          "internalType": "address",
          "name": "owner",
          "type": "address"
        }
      ],
      "name": "ERC721InvalidOwner",
      "type": "error"
    },
    {
      "inputs": [
        {
          "internalType": "address",
          "name": "receiver",
          "type": "address"
        }
      ],
      "name": "ERC721InvalidReceiver",
      "type": "error"
    },
    {
      "inputs": [
        {
          "internalType": "address",
          "name": "sender",
          "type": "address"
        }
      ],
      "name": "ERC721InvalidSender",
      "type": "error"
    },
    {
      "inputs": [
        {
          "internalType": "uint256",
          "name": "tokenId",
          "type": "uint256"
        }
      ],
      "name": "ERC721NonexistentToken",
      "type": "error"
    },
    {
      "inputs": [
        {
          "internalType": "address",
          "name": "owner",
          "type": "address"
        }
      ],
      "name": "OwnableInvalidOwner",
      "type": "error"
    },
    {
      "inputs": [
        {
          "internalType": "address",
          "name": "account",
          "type": "address"
        }
      ],
      "name": "OwnableUnauthorizedAccount",
      "type": "error"
    },
    {
      "anonymous": false,
      "inputs": [
        {
          "indexed": true,
          "internalType": "address",
          "name": "owner",
          "type": "address"
        },
        {
          "indexed": true,
          "internalType": "address",
          "name": "approved",
          "type": "address"
        },
        {
          "indexed": true,
          "internalType": "uint256",
          "name": "tokenId",
          "type": "uint256"
        }
      ],
      "name": "Approval",
      "type": "event"
    },
    {
      "anonymous": false,
      "inputs": [
        {
          "indexed": true,
          "internalType": "address",
          "name": "owner",
          "type": "address"
        },
        {
          "indexed": true,
          "internalType": "address",
          "name": "operator",
          "type": "address"
        },
        {
          "indexed": false,
          "internalType": "bool",
          "name": "approved",
          "type": "bool"
        }
      ],
      "name": "ApprovalForAll",
      "type": "event"
    },
    {
      "anonymous": false,
      "inputs": [
        {
          "indexed": true,
          "internalType": "address",
          "name": "player",
          "type": "address"
        },
        {
          "indexed": false,
          "internalType": "uint256",
          "name": "rank",
          "type": "uint256"
        }
      ],
      "name": "LeaderboardUpdated",
      "type": "event"
    },
    {
      "anonymous": false,
      "inputs": [
        {
          "indexed": true,
          "internalType": "address",
          "name": "previousOwner",
          "type": "address"
        },
        {
          "indexed": true,
          "internalType": "address",
          "name": "newOwner",
          "type": "address"
        }
      ],
      "name": "OwnershipTransferred",
      "type": "event"
    },
    {
      "anonymous": false,
      "inputs": [
        {
          "indexed": true,
          "internalType": "address",
          "name": "player",
          "type": "address"
        },
        {
          "indexed": true,
          "internalType": "uint256",
          "name": "tokenId",
          "type": "uint256"
        },
        {
          "indexed": false,
          "internalType": "uint256",
          "name": "timestamp",
          "type": "uint256"
        }
      ],
      "name": "PerfectBadgeMinted",
      "type": "event"
    },
    {
      "anonymous": false,
      "inputs": [
        {
          "indexed": true,
          "internalType": "address",
          "name": "player",
          "type": "address"
        },
        {
          "indexed": false,
          "internalType": "uint256",
          "name": "score",
          "type": "uint256"
        },
        {
          "indexed": false,
          "internalType": "uint256",
          "name": "time",
          "type": "uint256"
        },
        {
          "indexed": false,
          "internalType": "bool",
          "name": "isPerfect",
          "type": "bool"
        },
        {
          "indexed": false,
          "internalType": "uint256",
          "name": "timestamp",
          "type": "uint256"
        }
      ],
      "name": "ScoreSubmitted",
      "type": "event"
    },
    {
      "anonymous": false,
      "inputs": [
        {
          "indexed": true,
          "internalType": "address",
          "name": "from",
          "type": "address"
        },
        {
          "indexed": true,
          "internalType": "address",
          "name": "to",
          "type": "address"
        },
        {
          "indexed": true,
          "internalType": "uint256",
          "name": "tokenId",
          "type": "uint256"
        }
      ],
      "name": "Transfer",
      "type": "event"
    },
    {
      "inputs": [],
      "name": "MAX_LEADERBOARD_SIZE",
      "outputs": [
        {
          "internalType": "uint256",
          "name": "",
          "type": "uint256"
        }
      ],
      "stateMutability": "view",
      "type": "function"
    },
    {
      "inputs": [
        {
          "internalType": "address",
          "name": "to",
          "type": "address"
        },
        {
          "internalType": "uint256",
          "name": "tokenId",
          "type": "uint256"
        }
      ],
      "name": "approve",
      "outputs": [],
      "stateMutability": "nonpayable",
      "type": "function"
    },
    {
      "inputs": [
        {
          "internalType": "uint256",
          "name": "",
          "type": "uint256"
        }
      ],
      "name": "badgeOwner",
      "outputs": [
        {
          "internalType": "address",
          "name": "",
          "type": "address"
        }
      ],
      "stateMutability": "view",
      "type": "function"
    },
    {
      "inputs": [
        {
          "internalType": "address",
          "name": "owner",
          "type": "address"
        }
      ],
      "name": "balanceOf",
      "outputs": [
        {
          "internalType": "uint256",
          "name": "",
          "type": "uint256"
        }
      ],
      "stateMutability": "view",
      "type": "function"
    },
    {
      "inputs": [
        {
          "internalType": "uint256",
          "name": "tokenId",
          "type": "uint256"
        }
      ],
      "name": "getApproved",
      "outputs": [
        {
          "internalType": "address",
          "name": "",
          "type": "address"
        }
      ],
      "stateMutability": "view",
      "type": "function"
    },
    {
      "inputs": [],
      "name": "getGameStats",
      "outputs": [
        {
          "internalType": "uint256",
          "name": "_totalGames",
          "type": "uint256"
        },
        {
          "internalType": "uint256",
          "name": "_totalPerfectBadges",
          "type": "uint256"
        },
        {
          "internalType": "uint256",
          "name": "_leaderboardSize",
          "type": "uint256"
        }
      ],
      "stateMutability": "view",
      "type": "function"
    },
    {
      "inputs": [
        {
          "internalType": "address",
          "name": "player",
          "type": "address"
        }
      ],
      "name": "getPlayerRank",
      "outputs": [
        {
          "internalType": "uint256",
          "name": "",
          "type": "uint256"
        }
      ],
      "stateMutability": "view",
      "type": "function"
    },
    {
      "inputs": [
        {
          "internalType": "address",
          "name": "player",
          "type": "address"
        }
      ],
      "name": "getPlayerScores",
      "outputs": [
        {
          "components": [
            {
              "internalType": "address",
              "name": "player",
              "type": "address"
            },
            {
              "internalType": "uint256",
              "name": "score",
              "type": "uint256"
            },
            {
              "internalType": "uint256",
              "name": "time",
              "type": "uint256"
            },
            {
              "internalType": "uint256",
              "name": "timestamp",
              "type": "uint256"
            },
            {
              "internalType": "bool",
              "name": "isPerfect",
              "type": "bool"
            }
          ],
          "internalType": "struct TimeAttackGame.ScoreEntry[]",
          "name": "",
          "type": "tuple[]"
        }
      ],
      "stateMutability": "view",
      "type": "function"
    },
    {
      "inputs": [
        {
          "internalType": "uint256",
          "name": "count",
          "type": "uint256"
        }
      ],
      "name": "getTopScores",
      "outputs": [
        {
          "components": [
            {
              "internalType": "address",
              "name": "player",
              "type": "address"
            },
            {
              "internalType": "uint256",
              "name": "score",
              "type": "uint256"
            },
            {
              "internalType": "uint256",
              "name": "time",
              "type": "uint256"
            },
            {
              "internalType": "uint256",
              "name": "timestamp",
              "type": "uint256"
            },
            {
              "internalType": "bool",
              "name": "isPerfect",
              "type": "bool"
            }
          ],
          "internalType": "struct TimeAttackGame.ScoreEntry[]",
          "name": "",
          "type": "tuple[]"
        }
      ],
      "stateMutability": "view",
      "type": "function"
    },
    {
      "inputs": [
        {
          "internalType": "uint256",
          "name": "",
          "type": "uint256"
        }
      ],
      "name": "globalLeaderboard",
      "outputs": [
        {
          "internalType": "address",
          "name": "player",
          "type": "address"
        },
        {
          "internalType": "uint256",
          "name": "score",
          "type": "uint256"
        },
        {
          "internalType": "uint256",
          "name": "time",
          "type": "uint256"
        },
        {
          "internalType": "uint256",
          "name": "timestamp",
          "type": "uint256"
        },
        {
          "internalType": "bool",
          "name": "isPerfect",
          "type": "bool"
        }
      ],
      "stateMutability": "view",
      "type": "function"
    },
    {
      "inputs": [
        {
          "internalType": "address",
          "name": "",
          "type": "address"
        }
      ],
      "name": "hasPerfectBadge",
      "outputs": [
        {
          "internalType": "bool",
          "name": "",
          "type": "bool"
        }
      ],
      "stateMutability": "view",
      "type": "function"
    },
    {
      "inputs": [
        {
          "internalType": "address",
          "name": "owner",
          "type": "address"
        },
        {
          "internalType": "address",
          "name": "operator",
          "type": "address"
        }
      ],
      "name": "isApprovedForAll",
      "outputs": [
        {
          "internalType": "bool",
          "name": "",
          "type": "bool"
        }
      ],
      "stateMutability": "view",
      "type": "function"
    },
    {
      "inputs": [],
      "name": "name",
      "outputs": [
        {
          "internalType": "string",
          "name": "",
          "type": "string"
        }
      ],
      "stateMutability": "view",
      "type": "function"
    },
    {
      "inputs": [],
      "name": "owner",
      "outputs": [
        {
          "internalType": "address",
          "name": "",
          "type": "address"
        }
      ],
      "stateMutability": "view",
      "type": "function"
    },
    {
      "inputs": [
        {
          "internalType": "uint256",
          "name": "tokenId",
          "type": "uint256"
        }
      ],
      "name": "ownerOf",
      "outputs": [
        {
          "internalType": "address",
          "name": "",
          "type": "address"
        }
      ],
      "stateMutability": "view",
      "type": "function"
    },
    {
      "inputs": [
        {
          "internalType": "address",
          "name": "",
          "type": "address"
        }
      ],
      "name": "playerBestScore",
      "outputs": [
        {
          "internalType": "uint256",
          "name": "",
          "type": "uint256"
        }
      ],
      "stateMutability": "view",
      "type": "function"
    },
    {
      "inputs": [
        {
          "internalType": "address",
          "name": "",
          "type": "address"
        },
        {
          "internalType": "uint256",
          "name": "",
          "type": "uint256"
        }
      ],
      "name": "playerScores",
      "outputs": [
        {
          "internalType": "address",
          "name": "player",
          "type": "address"
        },
        {
          "internalType": "uint256",
          "name": "score",
          "type": "uint256"
        },
        {
          "internalType": "uint256",
          "name": "time",
          "type": "uint256"
        },
        {
          "internalType": "uint256",
          "name": "timestamp",
          "type": "uint256"
        },
        {
          "internalType": "bool",
          "name": "isPerfect",
          "type": "bool"
        }
      ],
      "stateMutability": "view",
      "type": "function"
    },
    {
      "inputs": [],
      "name": "renounceOwnership",
      "outputs": [],
      "stateMutability": "nonpayable",
      "type": "function"
    },
    {
      "inputs": [
        {
          "internalType": "address",
          "name": "from",
          "type": "address"
        },
        {
          "internalType": "address",
          "name": "to",
          "type": "address"
        },
        {
          "internalType": "uint256",
          "name": "tokenId",
          "type": "uint256"
        }
      ],
      "name": "safeTransferFrom",
      "outputs": [],
      "stateMutability": "nonpayable",
      "type": "function"
    },
    {
      "inputs": [
        {
          "internalType": "address",
          "name": "from",
          "type": "address"
        },
        {
          "internalType": "address",
          "name": "to",
          "type": "address"
        },
        {
          "internalType": "uint256",
          "name": "tokenId",
          "type": "uint256"
        },
        {
          "internalType": "bytes",
          "name": "data",
          "type": "bytes"
        }
      ],
      "name": "safeTransferFrom",
      "outputs": [],
      "stateMutability": "nonpayable",
      "type": "function"
    },
    {
      "inputs": [
        {
          "internalType": "address",
          "name": "operator",
          "type": "address"
        },
        {
          "internalType": "bool",
          "name": "approved",
          "type": "bool"
        }
      ],
      "name": "setApprovalForAll",
      "outputs": [],
      "stateMutability": "nonpayable",
      "type": "function"
    },
    {
      "inputs": [
        {
          "internalType": "uint256",
          "name": "_score",
          "type": "uint256"
        },
        {
          "internalType": "uint256",
          "name": "_time",
          "type": "uint256"
        }
      ],
      "name": "submitScore",
      "outputs": [],
      "stateMutability": "nonpayable",
      "type": "function"
    },
    {
      "inputs": [
        {
          "internalType": "bytes4",
          "name": "interfaceId",
          "type": "bytes4"
        }
      ],
      "name": "supportsInterface",
      "outputs": [
        {
          "internalType": "bool",
          "name": "",
          "type": "bool"
        }
      ],
      "stateMutability": "view",
      "type": "function"
    },
    {
      "inputs": [],
      "name": "symbol",
      "outputs": [
        {
          "internalType": "string",
          "name": "",
          "type": "string"
        }
      ],
      "stateMutability": "view",
      "type": "function"
    },
    {
      "inputs": [
        {
          "internalType": "uint256",
          "name": "tokenId",
          "type": "uint256"
        }
      ],
      "name": "tokenURI",
      "outputs": [
        {
          "internalType": "string",
          "name": "",
          "type": "string"
        }
      ],
      "stateMutability": "pure",
      "type": "function"
    },
    {
      "inputs": [],
      "name": "totalGames",
      "outputs": [
        {
          "internalType": "uint256",
          "name": "",
          "type": "uint256"
        }
      ],
      "stateMutability": "view",
      "type": "function"
    },
    {
      "inputs": [],
      "name": "totalPerfectBadges",
      "outputs": [
        {
          "internalType": "uint256",
          "name": "",
          "type": "uint256"
        }
      ],
      "stateMutability": "view",
      "type": "function"
    },
    {
      "inputs": [
        {
          "internalType": "address",
          "name": "from",
          "type": "address"
        },
        {
          "internalType": "address",
          "name": "to",
          "type": "address"
        },
        {
          "internalType": "uint256",
          "name": "tokenId",
          "type": "uint256"
        }
      ],
      "name": "transferFrom",
      "outputs": [],
      "stateMutability": "nonpayable",
      "type": "function"
    },
    {
      "inputs": [
        {
          "internalType": "address",
          "name": "newOwner",
          "type": "address"
        }
      ],
      "name": "transferOwnership",
      "outputs": [],
      "stateMutability": "nonpayable",
      "type": "function"
    }
  ],
  "bytecode": "0x60806040523480156200001157600080fd5b50336040518060400160405280601981526020017f54696d652041747461636b20506572666563742042616467650000000000000081525060405180604001604052806007815260200166141154919150d560ca1b81525081600090816200007a9190620001cb565b506001620000898282620001cb565b5050506001600160a01b038116620000bb57604051631e4fbdf760e01b81526000600482015260240160405180910390fd5b620000c681620000d2565b50600160095562000297565b600680546001600160a01b038381166001600160a01b0319831681179093556040519116919082907f8be0079c531659141344cd1fd0a4f28419497f9722a3daafe3b4186f6b6457e090600090a35050565b634e487b7160e01b600052604160045260246000fd5b600181811c908216806200014f57607f821691505b6020821081036200017057634e487b7160e01b600052602260045260246000fd5b50919050565b601f821115620001c6576000816000526020600020601f850160051c81016020861015620001a15750805b601f850160051c820191505b81811015620001c257828155600101620001ad565b5050505b505050565b81516001600160401b03811115620001e757620001e762000124565b620001ff81620001f884546200013a565b8462000176565b602080601f8311600181146200023757600084156200021e5750858301515b600019600386901b1c1916600185901b178555620001c2565b600085815260208120601f198616915b82811015620002685788860151825594840194600190910190840162000247565b5085821015620002875787850151600019600388901b60f8161c191681555b5050505050600190811b01905550565b611ec780620002a76000396000f3fe608060405234801561001057600080fd5b50600436106101cf5760003560e01c806373055bc311610104578063a8117484116100a2578063d4fd16b511610071578063d4fd16b5146105cc578063db877142146105ef578063e985e9c5146105f7578063f2fde38b1461060a57600080fd5b8063a8117484146103de578063b162f257146103fe578063b88d4fde14610411578063c87b56dd1461042457600080fd5b806395d89b41116100de57806395d89b4114610390578063968ffe3414610398578063a22cb465146103b8578063a697cb0e146103cb57600080fd5b806373055bc3146103595780638358ba081461036c5780638da5cb5b1461037f57600080fd5b80632c4e591b1161017157806342842e0e1161014b57806342842e0e146103185780636352211e1461032b57806370a082311461033e578063715018a61461035157600080fd5b80632c4e591b1461029f578063330ab49a146102a85780633aeef20d146102ef57600080fd5b8063095ea7b3116101ad578063095ea7b31461023c5780631aff30dd1461025157806323b872dd146102755780632472ce591461028857600080fd5b806301ffc9a7146101d457806306fdde03146101fc578063081812fc14610211575b600080fd5b6101e76101e2366004611a6a565b61061d565b60405190151581526020015b60405180910390f35b61020461066f565b6040516101f39190611acd565b61022461021f366004611ae0565b610701565b6040516001600160a01b0390911681526020016101f3565b61024f61024a366004611b15565b61072a565b005b600754600854600e54604080519384526020840192909252908201526060016101f3565b61024f610283366004611b3f565b610739565b61029160085481565b6040519081526020016101f3565b61029160075481565b6102bb6102b6366004611ae0565b6107c9565b604080516001600160a01b03909616865260208601949094529284019190915260608301521515608082015260a0016101f3565b6102246102fd366004611ae0565b600d602052600090815260409020546001600160a01b031681565b61024f610326366004611b3f565b610817565b610224610339366004611ae0565b610837565b61029161034c366004611b7b565b610842565b61024f61088a565b6102bb610367366004611b15565b61089e565b61024f61037a366004611b96565b6108f9565b6006546001600160a01b0316610224565b610204610ad5565b6103ab6103a6366004611ae0565b610ae4565b6040516101f39190611bb8565b61024f6103c6366004611c31565b610c31565b6102916103d9366004611b7b565b610c3c565b6102916103ec366004611b7b565b600b6020526000908152604090205481565b6103ab61040c366004611b7b565b610cf2565b61024f61041f366004611c83565b610da1565b610204610432366004611ae0565b50604080517f646174613a6170706c69636174696f6e2f6a736f6e3b6261736536342c00000060208201527f65794a755957316c496a6f67496c426c636d5a6c5933516756476c745a534242603d8201527f6448526859327367516d466b5a3255694c4341695a47567a59334a7063485270605d8201527f623234694f69416951574e6f615756325a575167634756795a6d566a64434178607d8201527f4d4334774d43427a5a574e76626d527a49476c75494652706257556751585230609d8201527f59574e724953497349434a706257466e5a53493649434a7063475a7a4f69387660bd8201527f555731515a584a6d5a574e30516d466b5a3255694c43416959585230636d6c6960dd8201527f6458526c6379493649467437496e527959576c3058335235634755694f69416960fd8201527f51574e6f615756325a57316c626e51694c434169646d4673645755694f69416961011d8201527f554756795a6d566a644341784d4334774d484d6966563139000000000000000061013d820152815161013581830301815261015590910190915290565b6101e76105da366004611b7b565b600c6020526000908152604090205460ff1681565b610291606481565b6101e7610605366004611d5f565b610db9565b61024f610618366004611b7b565b610de7565b60006001600160e01b031982166380ac58cd60e01b148061064e57506001600160e01b03198216635b5e139f60e01b145b8061066957506301ffc9a760e01b6001600160e01b03198316145b92915050565b60606000805461067e90611d92565b80601f01602080910402602001604051908101604052809291908181526020018280546106aa90611d92565b80156106f75780601f106106cc576101008083540402835291602001916106f7565b820191906000526020600020905b8154815290600101906020018083116106da57829003601f168201915b5050505050905090565b600061070c82610e25565b506000828152600460205260409020546001600160a01b0316610669565b610735828233610e5e565b5050565b6001600160a01b03821661076857604051633250574960e11b8152600060048201526024015b60405180910390fd5b6000610775838333610e6b565b9050836001600160a01b0316816001600160a01b0316146107c3576040516364283d7b60e01b81526001600160a01b038086166004830152602482018490528216604482015260640161075f565b50505050565b600e81815481106107d957600080fd5b6000918252602090912060059091020180546001820154600283015460038401546004909401546001600160a01b0390931694509092909160ff1685565b61083283838360405180602001604052806000815250610da1565b505050565b600061066982610e25565b60006001600160a01b03821661086e576040516322718ad960e21b81526000600482015260240161075f565b506001600160a01b031660009081526003602052604090205490565b610892610f04565b61089c6000610f31565b565b600a60205281600052604060002081815481106108ba57600080fd5b6000918252602090912060059091020180546001820154600283015460038401546004909401546001600160a01b039093169550909350919060ff1685565b606482111561093a5760405162461bcd60e51b815260206004820152600d60248201526c496e76616c69642073636f726560981b604482015260640161075f565b600081116109795760405162461bcd60e51b815260206004820152600c60248201526b496e76616c69642074696d6560a01b604482015260640161075f565b6040805160a081018252338082526020808301868152838501868152426060860190815260648914608087018181526000968752600a8652978620805460018082018355918852958720885160059097020180546001600160a01b0319166001600160a01b039097169690961786559351938501939093559051600284015551600383015593516004909101805460ff19169115159190911790556007805491610a2283611de2565b9091555050336000908152600b6020526040902054841115610a5157336000908152600b602052604090208490555b610a5a81610f83565b818015610a775750336000908152600c602052604090205460ff16155b15610a8557610a8533611253565b604080518581526020810185905283151581830152426060820152905133917fe33289ac93951f70a5fcdf69fc801aaa1307a0c2bac5edd1275fffcf6e615dd9919081900360800190a250505050565b60606001805461067e90611d92565b600e546060906000908311610af95782610afd565b600e545b905060008167ffffffffffffffff811115610b1a57610b1a611c6d565b604051908082528060200260200182016040528015610b8857816020015b610b756040518060a0016040528060006001600160a01b031681526020016000815260200160008152602001600081526020016000151581525090565b815260200190600190039081610b385790505b50905060005b82811015610c2957600e8181548110610ba957610ba9611dfb565b60009182526020918290206040805160a081018252600590930290910180546001600160a01b031683526001810154938301939093526002830154908201526003820154606082015260049091015460ff16151560808201528251839083908110610c1657610c16611dfb565b6020908102919091010152600101610b8e565b509392505050565b610735338383611311565b6000805b600e54811015610ce957826001600160a01b0316600e8281548110610c6757610c67611dfb565b60009182526020909120600590910201546001600160a01b0316148015610cca57506001600160a01b0383166000908152600b6020526040902054600e805483908110610cb657610cb6611dfb565b906000526020600020906005020160010154145b15610ce157610cda816001611e11565b9392505050565b600101610c40565b50600092915050565b6001600160a01b0381166000908152600a60209081526040808320805482518185028101850190935280835260609492939192909184015b82821015610d965760008481526020908190206040805160a0810182526005860290920180546001600160a01b0316835260018082015484860152600282015492840192909252600381015460608401526004015460ff16151560808301529083529092019101610d2a565b505050509050919050565b610dac848484610739565b6107c333858585856113b0565b6001600160a01b03918216600090815260056020908152604080832093909416825291909152205460ff1690565b610def610f04565b6001600160a01b038116610e1957604051631e4fbdf760e01b81526000600482015260240161075f565b610e2281610f31565b50565b6000818152600260205260408120546001600160a01b03168061066957604051637e27328960e01b81526004810184905260240161075f565b61083283838360016114db565b6000828152600260205260408120546001600160a01b03168015610ef05760405162461bcd60e51b815260206004820152603660248201527f50657266656374204261646765732061726520736f756c626f756e6420616e646044820152750818d85b9b9bdd081899481d1c985b9cd9995c9c995960521b606482015260840161075f565b610efb8585856115e1565b95945050505050565b6006546001600160a01b0316331461089c5760405163118cdaa760e01b815233600482015260240161075f565b600680546001600160a01b038381166001600160a01b0319831681179093556040519116919082907f8be0079c531659141344cd1fd0a4f28419497f9722a3daafe3b4186f6b6457e090600090a35050565b600e54606411156110e857600e805460018101825560009190915281517fbb7b4a454dc3493923482f07822329ed19e8244eff582cc204f8554c3620c3fd600590920291820180546001600160a01b0319166001600160a01b0390921691909117905560208201517fbb7b4a454dc3493923482f07822329ed19e8244eff582cc204f8554c3620c3fe82015560408201517fbb7b4a454dc3493923482f07822329ed19e8244eff582cc204f8554c3620c3ff82015560608201517fbb7b4a454dc3493923482f07822329ed19e8244eff582cc204f8554c3620c40082015560808201517fbb7b4a454dc3493923482f07822329ed19e8244eff582cc204f8554c3620c401909101805460ff19169115159190911790556110a16116da565b8051600e546040519081526001600160a01b03909116907f24e225604268d6416871b32db1be8e49f497caf8360393b31d71a34a4ce266939060200160405180910390a250565b600e6110f660016064611e24565b8154811061110657611106611dfb565b90600052602060002090600502016001015481602001511115610e225780600e61113260016064611e24565b8154811061114257611142611dfb565b600091825260209182902083516005929092020180546001600160a01b0319166001600160a01b0390921691909117815590820151600182015560408201516002820155606082015160038201556080909101516004909101805460ff19169115159190911790556111b26116da565b60005b600e548110156107355781600001516001600160a01b0316600e82815481106111e0576111e0611dfb565b60009182526020909120600590910201546001600160a01b03160361124b5781516001600160a01b03167f24e225604268d6416871b32db1be8e49f497caf8360393b31d71a34a4ce26693611236836001611e11565b60405190815260200160405180910390a25050565b6001016111b5565b60098054908190600061126583611de2565b919050555061127482826118f3565b6001600160a01b0382166000818152600c60209081526040808320805460ff19166001179055848352600d909152812080546001600160a01b03191690921790915560088054916112c483611de2565b919050555080826001600160a01b03167f4947d052c856de0e4167cbb18cb8676861dd094877411031257dd7ce6333638e4260405161130591815260200190565b60405180910390a35050565b6001600160a01b03821661134357604051630b61174360e31b81526001600160a01b038316600482015260240161075f565b6001600160a01b03838116600081815260056020908152604080832094871680845294825291829020805460ff191686151590811790915591519182527f17307eab39ab6107e8899845ad3d59bd9653f200f220920489ca2b5937696c31910160405180910390a3505050565b6001600160a01b0383163b156114d457604051630a85bd0160e11b81526001600160a01b0384169063150b7a02906113f2908890889087908790600401611e37565b6020604051808303816000875af192505050801561142d575060408051601f3d908101601f1916820190925261142a91810190611e74565b60015b611496573d80801561145b576040519150601f19603f3d011682016040523d82523d6000602084013e611460565b606091505b50805160000361148e57604051633250574960e11b81526001600160a01b038516600482015260240161075f565b805160208201fd5b6001600160e01b03198116630a85bd0160e11b146114d257604051633250574960e11b81526001600160a01b038516600482015260240161075f565b505b5050505050565b80806114ef57506001600160a01b03821615155b156115b15760006114ff84610e25565b90506001600160a01b0383161580159061152b5750826001600160a01b0316816001600160a01b031614155b801561153e575061153c8184610db9565b155b156115675760405163a9fbf51f60e01b81526001600160a01b038416600482015260240161075f565b81156115af5783856001600160a01b0316826001600160a01b03167f8c5be1e5ebec7d5bd14f71427d1e84f3dd0314c0f7b2291e5b200ac8c7c3b92560405160405180910390a45b505b5050600090815260046020526040902080546001600160a01b0319166001600160a01b0392909216919091179055565b6000828152600260205260408120546001600160a01b039081169083161561160e5761160e81848661190d565b6001600160a01b0381161561164c5761162b6000856000806114db565b6001600160a01b038116600090815260036020526040902080546000190190555b6001600160a01b0385161561167b576001600160a01b0385166000908152600360205260409020805460010190555b60008481526002602052604080822080546001600160a01b0319166001600160a01b0389811691821790925591518793918516917fddf252ad1be2c89b69c2b068fc378daa952ba7f163c4a11628f55a4df523b3ef91a4949350505050565b600e5460005b818110156107355760006116f5826001611e11565b90505b828110156118ea57600e818154811061171357611713611dfb565b906000526020600020906005020160010154600e838154811061173857611738611dfb565b90600052602060002090600502016001015410156118e2576000600e838154811061176557611765611dfb565b60009182526020918290206040805160a081018252600590930290910180546001600160a01b031683526001810154938301939093526002830154908201526003820154606082015260049091015460ff1615156080820152600e805491925090839081106117d6576117d6611dfb565b9060005260206000209060050201600e84815481106117f7576117f7611dfb565b60009182526020909120825460059092020180546001600160a01b0319166001600160a01b039092169190911781556001808301549082015560028083015490820155600380830154908201556004918201549101805460ff909216151560ff19909216919091179055600e80548291908490811061187857611878611dfb565b600091825260209182902083516005929092020180546001600160a01b0319166001600160a01b0390921691909117815590820151600182015560408201516002820155606082015160038201556080909101516004909101805460ff1916911515919091179055505b6001016116f8565b506001016116e0565b610735828260405180602001604052806000815250611971565b611918838383611989565b610832576001600160a01b03831661194657604051637e27328960e01b81526004810182905260240161075f565b60405163177e802f60e01b81526001600160a01b03831660048201526024810182905260440161075f565b61197b83836119ef565b6108323360008585856113b0565b60006001600160a01b038316158015906119e75750826001600160a01b0316846001600160a01b031614806119c357506119c38484610db9565b806119e757506000828152600460205260409020546001600160a01b038481169116145b949350505050565b6001600160a01b038216611a1957604051633250574960e11b81526000600482015260240161075f565b6000611a2783836000610e6b565b90506001600160a01b03811615610832576040516339e3563760e11b81526000600482015260240161075f565b6001600160e01b031981168114610e2257600080fd5b600060208284031215611a7c57600080fd5b8135610cda81611a54565b6000815180845260005b81811015611aad57602081850181015186830182015201611a91565b506000602082860101526020601f19601f83011685010191505092915050565b602081526000610cda6020830184611a87565b600060208284031215611af257600080fd5b5035919050565b80356001600160a01b0381168114611b1057600080fd5b919050565b60008060408385031215611b2857600080fd5b611b3183611af9565b946020939093013593505050565b600080600060608486031215611b5457600080fd5b611b5d84611af9565b9250611b6b60208501611af9565b9150604084013590509250925092565b600060208284031215611b8d57600080fd5b610cda82611af9565b60008060408385031215611ba957600080fd5b50508035926020909101359150565b602080825282518282018190526000919060409081850190868401855b82811015611c2457815180516001600160a01b03168552868101518786015285810151868601526060808201519086015260809081015115159085015260a09093019290850190600101611bd5565b5091979650505050505050565b60008060408385031215611c4457600080fd5b611c4d83611af9565b915060208301358015158114611c6257600080fd5b809150509250929050565b634e487b7160e01b600052604160045260246000fd5b60008060008060808587031215611c9957600080fd5b611ca285611af9565b9350611cb060208601611af9565b925060408501359150606085013567ffffffffffffffff80821115611cd457600080fd5b818701915087601f830112611ce857600080fd5b813581811115611cfa57611cfa611c6d565b604051601f8201601f19908116603f01168101908382118183101715611d2257611d22611c6d565b816040528281528a6020848701011115611d3b57600080fd5b82602086016020830137600060208483010152809550505050505092959194509250565b60008060408385031215611d7257600080fd5b611d7b83611af9565b9150611d8960208401611af9565b90509250929050565b600181811c90821680611da657607f821691505b602082108103611dc657634e487b7160e01b600052602260045260246000fd5b50919050565b634e487b7160e01b600052601160045260246000fd5b600060018201611df457611df4611dcc565b5060010190565b634e487b7160e01b600052603260045260246000fd5b8082018082111561066957610669611dcc565b8181038181111561066957610669611dcc565b6001600160a01b0385811682528416602082015260408101839052608060608201819052600090611e6a90830184611a87565b9695505050505050565b600060208284031215611e8657600080fd5b8151610cda81611a5456fea2646970667358221220b2c59ff8bb40b68a44122917504492895529c300338ef8fc24baa43a4038216764736f6c63430008180033",
  "linkReferences": {},
  "deployedLinkReferences": {}
}